{"abi":[{"type":"constructor","inputs":[{"name":"asset","type":"address","internalType":"contract IERC20"}],"stateMutability":"nonpayable"},{"type":"function","name":"allowance","inputs":[{"name":"owner","type":"address","internalType":"address"},{"name":"spender","type":"address","internalType":"address"}],"outputs":[{"name":"","type":"uint256","internalType":"uint256"}],"stateMutability":"view"},{"type":"function","name":"approve","inputs":[{"name":"spender","type":"address","internalType":"address"},{"name":"value","type":"uint256","internalType":"uint256"}],"outputs":[{"name":"","type":"bool","internalType":"bool"}],"stateMutability":"nonpayable"},{"type":"function","name":"asset","inputs":[],"outputs":[{"name":"","type":"address","internalType":"address"}],"stateMutability":"view"},{"type":"function","name":"balanceOf","inputs":[{"name":"account","type":"address","internalType":"address"}],"outputs":[{"name":"","type":"uint256","internalType":"uint256"}],"stateMutability":"view"},{"type":"function","name":"convertToAssets","inputs":[{"name":"shares","type":"uint256","internalType":"uint256"}],"outputs":[{"name":"","type":"uint256","internalType":"uint256"}],"stateMutability":"view"},{"type":"function","name":"convertToShares","inputs":[{"name":"assets","type":"uint256","internalType":"uint256"}],"outputs":[{"name":"","type":"uint256","internalType":"uint256"}],"stateMutability":"view"},{"type":"function","name":"decimals","inputs":[],"outputs":[{"name":"","type":"uint8","internalType":"uint8"}],"stateMutability":"view"},{"type":"function","name":"deposit","inputs":[{"name":"assets","type":"uint256","internalType":"uint256"},{"name":"receiver","type":"address","internalType":"address"}],"outputs":[{"name":"","type":"uint256","internalType":"uint256"}],"stateMutability":"nonpayable"},{"type":"function","name":"maxDeposit","inputs":[{"name":"","type":"address","internalType":"address"}],"outputs":[{"name":"","type":"uint256","internalType":"uint256"}],"stateMutability":"view"},{"type":"function","name":"maxMint","inputs":[{"name":"","type":"address","internalType":"address"}],"outputs":[{"name":"","type":"uint256","internalType":"uint256"}],"stateMutability":"view"},{"type":"function","name":"maxRedeem","inputs":[{"name":"owner","type":"address","internalType":"address"}],"outputs":[{"name":"","type":"uint256","internalType":"uint256"}],"stateMutability":"view"},{"type":"function","name":"maxWithdraw","inputs":[{"name":"owner","type":"address","internalType":"address"}],"outputs":[{"name":"","type":"uint256","internalType":"uint256"}],"stateMutability":"view"},{"type":"function","name":"mint","inputs":[{"name":"shares","type":"uint256","internalType":"uint256"},{"name":"receiver","type":"address","internalType":"address"}],"outputs":[{"name":"","type":"uint256","internalType":"uint256"}],"stateMutability":"nonpayable"},{"type":"function","name":"name","inputs":[],"outputs":[{"name":"","type":"string","internalType":"string"}],"stateMutability":"view"},{"type":"function","name":"previewDeposit","inputs":[{"name":"assets","type":"uint256","internalType":"uint256"}],"outputs":[{"name":"","type":"uint256","internalType":"uint256"}],"stateMutability":"view"},{"type":"function","name":"previewMint","inputs":[{"name":"shares","type":"uint256","internalType":"uint256"}],"outputs":[{"name":"","type":"uint256","internalType":"uint256"}],"stateMutability":"view"},{"type":"function","name":"previewRedeem","inputs":[{"name":"shares","type":"uint256","internalType":"uint256"}],"outputs":[{"name":"","type":"uint256","internalType":"uint256"}],"stateMutability":"view"},{"type":"function","name":"previewWithdraw","inputs":[{"name":"assets","type":"uint256","internalType":"uint256"}],"outputs":[{"name":"","type":"uint256","internalType":"uint256"}],"stateMutability":"view"},{"type":"function","name":"redeem","inputs":[{"name":"shares","type":"uint256","internalType":"uint256"},{"name":"receiver","type":"address","internalType":"address"},{"name":"owner","type":"address","internalType":"address"}],"outputs":[{"name":"","type":"uint256","internalType":"uint256"}],"stateMutability":"nonpayable"},{"type":"function","name":"symbol","inputs":[],"outputs":[{"name":"","type":"string","internalType":"string"}],"stateMutability":"view"},{"type":"function","name":"totalAssets","inputs":[],"outputs":[{"name":"","type":"uint256","internalType":"uint256"}],"stateMutability":"view"},{"type":"function","name":"totalSupply","inputs":[],"outputs":[{"name":"","type":"uint256","internalType":"uint256"}],"stateMutability":"view"},{"type":"function","name":"transfer","inputs":[{"name":"to","type":"address","internalType":"address"},{"name":"value","type":"uint256","internalType":"uint256"}],"outputs":[{"name":"","type":"bool","internalType":"bool"}],"stateMutability":"nonpayable"},{"type":"function","name":"transferFrom","inputs":[{"name":"from","type":"address","internalType":"address"},{"name":"to","type":"address","internalType":"address"},{"name":"value","type":"uint256","internalType":"uint256"}],"outputs":[{"name":"","type":"bool","internalType":"bool"}],"stateMutability":"nonpayable"},{"type":"function","name":"withdraw","inputs":[{"name":"assets","type":"uint256","internalType":"uint256"},{"name":"receiver","type":"address","internalType":"address"},{"name":"owner","type":"address","internalType":"address"}],"outputs":[{"name":"","type":"uint256","internalType":"uint256"}],"stateMutability":"nonpayable"},{"type":"event","name":"Approval","inputs":[{"name":"owner","type":"address","indexed":true,"internalType":"address"},{"name":"spender","type":"address","indexed":true,"internalType":"address"},{"name":"value","type":"uint256","indexed":false,"internalType":"uint256"}],"anonymous":false},{"type":"event","name":"Deposit","inputs":[{"name":"sender","type":"address","indexed":true,"internalType":"address"},{"name":"owner","type":"address","indexed":true,"internalType":"address"},{"name":"assets","type":"uint256","indexed":false,"internalType":"uint256"},{"name":"shares","type":"uint256","indexed":false,"internalType":"uint256"}],"anonymous":false},{"type":"event","name":"Transfer","inputs":[{"name":"from","type":"address","indexed":true,"internalType":"address"},{"name":"to","type":"address","indexed":true,"internalType":"address"},{"name":"value","type":"uint256","indexed":false,"internalType":"uint256"}],"anonymous":false},{"type":"event","name":"Withdraw","inputs":[{"name":"sender","type":"address","indexed":true,"internalType":"address"},{"name":"receiver","type":"address","indexed":true,"internalType":"address"},{"name":"owner","type":"address","indexed":true,"internalType":"address"},{"name":"assets","type":"uint256","indexed":false,"internalType":"uint256"},{"name":"shares","type":"uint256","indexed":false,"internalType":"uint256"}],"anonymous":false},{"type":"error","name":"ERC20InsufficientAllowance","inputs":[{"name":"spender","type":"address","internalType":"address"},{"name":"allowance","type":"uint256","internalType":"uint256"},{"name":"needed","type":"uint256","internalType":"uint256"}]},{"type":"error","name":"ERC20InsufficientBalance","inputs":[{"name":"sender","type":"address","internalType":"address"},{"name":"balance","type":"uint256","internalType":"uint256"},{"name":"needed","type":"uint256","internalType":"uint256"}]},{"type":"error","name":"ERC20InvalidApprover","inputs":[{"name":"approver","type":"address","internalType":"address"}]},{"type":"error","name":"ERC20InvalidReceiver","inputs":[{"name":"receiver","type":"address","internalType":"address"}]},{"type":"error","name":"ERC20InvalidSender","inputs":[{"name":"sender","type":"address","internalType":"address"}]},{"type":"error","name":"ERC20InvalidSpender","inputs":[{"name":"spender","type":"address","internalType":"address"}]},{"type":"error","name":"ERC4626ExceededMaxDeposit","inputs":[{"name":"receiver","type":"address","internalType":"address"},{"name":"assets","type":"uint256","internalType":"uint256"},{"name":"max","type":"uint256","internalType":"uint256"}]},{"type":"error","name":"ERC4626ExceededMaxMint","inputs":[{"name":"receiver","type":"address","internalType":"address"},{"name":"shares","type":"uint256","internalType":"uint256"},{"name":"max","type":"uint256","internalType":"uint256"}]},{"type":"error","name":"ERC4626ExceededMaxRedeem","inputs":[{"name":"owner","type":"address","internalType":"address"},{"name":"shares","type":"uint256","internalType":"uint256"},{"name":"max","type":"uint256","internalType":"uint256"}]},{"type":"error","name":"ERC4626ExceededMaxWithdraw","inputs":[{"name":"owner","type":"address","internalType":"address"},{"name":"assets","type":"uint256","internalType":"uint256"},{"name":"max","type":"uint256","internalType":"uint256"}]},{"type":"error","name":"SafeERC20FailedOperation","inputs":[{"name":"token","type":"address","internalType":"address"}]}],"bytecode":{"object":"0x60c06040523480156200001157600080fd5b506040516200158c3803806200158c8339810160408190526200003491620001c0565b806040518060400160405280600a8152602001691111cc4c0815985d5b1d60b21b815250604051806040016040528060048152602001630444731360e41b815250816003908162000086919062000297565b50600462000095828262000297565b505050600080620000ac83620000db60201b60201c565b9150915081620000be576012620000c0565b805b60ff1660a05250506001600160a01b031660805250620003ae565b60408051600481526024810182526020810180516001600160e01b031663313ce56760e01b17905290516000918291829182916001600160a01b03871691620001249162000363565b600060405180830381855afa9150503d806000811462000161576040519150601f19603f3d011682016040523d82523d6000602084013e62000166565b606091505b50915091508180156200017b57506020815110155b15620001b35760008180602001905181019062000199919062000394565b905060ff8111620001b1576001969095509350505050565b505b5060009485945092505050565b600060208284031215620001d357600080fd5b81516001600160a01b0381168114620001eb57600080fd5b9392505050565b634e487b7160e01b600052604160045260246000fd5b600181811c908216806200021d57607f821691505b6020821081036200023e57634e487b7160e01b600052602260045260246000fd5b50919050565b601f8211156200029257600081815260208120601f850160051c810160208610156200026d5750805b601f850160051c820191505b818110156200028e5782815560010162000279565b5050505b505050565b81516001600160401b03811115620002b357620002b3620001f2565b620002cb81620002c4845462000208565b8462000244565b602080601f831160018114620003035760008415620002ea5750858301515b600019600386901b1c1916600185901b1785556200028e565b600085815260208120601f198616915b82811015620003345788860151825594840194600190910190840162000313565b5085821015620003535787850151600019600388901b60f8161c191681555b5050505050600190811b01905550565b6000825160005b818110156200038657602081860181015185830152016200036a565b506000920191825250919050565b600060208284031215620003a757600080fd5b5051919050565b60805160a0516111a3620003e9600039600061050f0152600081816102330152818161039f015281816107f001526108b001526111a36000f3fe608060405234801561001057600080fd5b50600436106101735760003560e01c806370a08231116100de578063ba08765211610097578063ce96cb7711610071578063ce96cb7714610328578063d905777e1461033b578063dd62ed3e1461034e578063ef8b30f71461031557600080fd5b8063ba08765214610302578063c63d75b61461025d578063c6e6f5921461031557600080fd5b806370a082311461028557806394bf804d146102ae57806395d89b41146102c1578063a9059cbb146102c9578063b3d7f6b9146102dc578063b460af94146102ef57600080fd5b806323b872dd1161013057806323b872dd146101f9578063313ce5671461020c57806338d52e0f14610226578063402d267d1461025d5780634cdad506146101a85780636e553f651461027257600080fd5b806301e1d1141461017857806306fdde031461019357806307a2d13a146101a8578063095ea7b3146101bb5780630a28a477146101de57806318160ddd146101f1575b600080fd5b610180610387565b6040519081526020015b60405180910390f35b61019b610417565b60405161018a9190610dd2565b6101806101b6366004610e20565b6104a9565b6101ce6101c9366004610e55565b6104bc565b604051901515815260200161018a565b6101806101ec366004610e20565b6104d4565b600254610180565b6101ce610207366004610e7f565b6104e1565b610214610507565b60405160ff909116815260200161018a565b6040516001600160a01b037f000000000000000000000000000000000000000000000000000000000000000016815260200161018a565b61018061026b366004610ebb565b5060001990565b610180610280366004610ed6565b610533565b610180610293366004610ebb565b6001600160a01b031660009081526020819052604090205490565b6101806102bc366004610ed6565b610567565b61019b610585565b6101ce6102d7366004610e55565b610594565b6101806102ea366004610e20565b6105a2565b6101806102fd366004610f02565b6105af565b610180610310366004610f02565b610607565b610180610323366004610e20565b610656565b610180610336366004610ebb565b610663565b610180610349366004610ebb565b610687565b61018061035c366004610f3e565b6001600160a01b03918216600090815260016020908152604080832093909416825291909152205490565b6040516370a0823160e01b81523060048201526000907f00000000000000000000000000000000000000000000000000000000000000006001600160a01b0316906370a0823190602401602060405180830381865afa1580156103ee573d6000803e3d6000fd5b505050506040513d601f19601f820116820180604052508101906104129190610f68565b905090565b60606003805461042690610f81565b80601f016020809104026020016040519081016040528092919081815260200182805461045290610f81565b801561049f5780601f106104745761010080835404028352916020019161049f565b820191906000526020600020905b81548152906001019060200180831161048257829003601f168201915b5050505050905090565b60006104b68260006106a5565b92915050565b6000336104ca8185856106df565b5060019392505050565b60006104b68260016106f1565b6000336104ef858285610721565b6104fa85858561078c565b60019150505b9392505050565b6000610412817f0000000000000000000000000000000000000000000000000000000000000000610fd1565b6000600019610546565b60405180910390fd5b600061055185610656565b905061055f338587846107eb565b949350505050565b60006000196000610577856105a2565b905061055f338583886107eb565b60606004805461042690610f81565b6000336104ca81858561078c565b60006104b68260016106a5565b6000806105bb83610663565b9050808511156105e457828582604051633fa733bb60e21b815260040161053d93929190610fea565b60006105ef866104d4565b90506105fe338686898561087d565b95945050505050565b60008061061383610687565b90508085111561063c57828582604051632e52afbb60e21b815260040161053d93929190610fea565b6000610647866104a9565b90506105fe338686848a61087d565b60006104b68260006106f1565b6001600160a01b0381166000908152602081905260408120546104b69060006106a5565b6001600160a01b0381166000908152602081905260408120546104b6565b60006105006106b2610387565b6106bd90600161100b565b6106c96000600a611102565b6002546106d6919061100b565b8591908561093d565b6106ec8383836001610981565b505050565b600061050061070182600a611102565b60025461070e919061100b565b610716610387565b6106d690600161100b565b6001600160a01b038381166000908152600160209081526040808320938616835292905220546000198114610786578181101561077757828183604051637dc7a0d960e11b815260040161053d93929190610fea565b61078684848484036000610981565b50505050565b6001600160a01b0383166107b657604051634b637e8f60e11b81526000600482015260240161053d565b6001600160a01b0382166107e05760405163ec442f0560e01b81526000600482015260240161053d565b6106ec838383610a48565b6108177f0000000000000000000000000000000000000000000000000000000000000000853085610b5f565b6108218382610bc6565b826001600160a01b0316846001600160a01b03167fdcbc1c05240f31ff3ad067ef1ee35ce4997762752e3a095284754544f4c709d7848460405161086f929190918252602082015260400190565b60405180910390a350505050565b826001600160a01b0316856001600160a01b0316146108a1576108a1838683610721565b6108ab8382610c00565b6108d67f00000000000000000000000000000000000000000000000000000000000000008584610c36565b826001600160a01b0316846001600160a01b0316866001600160a01b03167ffbde797d201c681b91056529119e0b02407c7bb96a4a2c75c01fc9667232c8db858560405161092e929190918252602082015260400190565b60405180910390a45050505050565b600061096c61094b83610c67565b801561096757506000848061096257610962611111565b868809115b151590565b610977868686610c94565b6105fe919061100b565b6001600160a01b0384166109ab5760405163e602df0560e01b81526000600482015260240161053d565b6001600160a01b0383166109d557604051634a1406b160e11b81526000600482015260240161053d565b6001600160a01b038085166000908152600160209081526040808320938716835292905220829055801561078657826001600160a01b0316846001600160a01b03167f8c5be1e5ebec7d5bd14f71427d1e84f3dd0314c0f7b2291e5b200ac8c7c3b9258460405161086f91815260200190565b6001600160a01b038316610a73578060026000828254610a68919061100b565b90915550610ad29050565b6001600160a01b03831660009081526020819052604090205481811015610ab35783818360405163391434e360e21b815260040161053d93929190610fea565b6001600160a01b03841660009081526020819052604090209082900390555b6001600160a01b038216610aee57600280548290039055610b0d565b6001600160a01b03821660009081526020819052604090208054820190555b816001600160a01b0316836001600160a01b03167fddf252ad1be2c89b69c2b068fc378daa952ba7f163c4a11628f55a4df523b3ef83604051610b5291815260200190565b60405180910390a3505050565b6040516001600160a01b0384811660248301528381166044830152606482018390526107869186918216906323b872dd906084015b604051602081830303815290604052915060e01b6020820180516001600160e01b038381831617835250505050610d4f565b6001600160a01b038216610bf05760405163ec442f0560e01b81526000600482015260240161053d565b610bfc60008383610a48565b5050565b6001600160a01b038216610c2a57604051634b637e8f60e11b81526000600482015260240161053d565b610bfc82600083610a48565b6040516001600160a01b038381166024830152604482018390526106ec91859182169063a9059cbb90606401610b94565b60006002826003811115610c7d57610c7d611127565b610c87919061113d565b60ff166001149050919050565b6000838302816000198587098281108382030391505080600003610ccb57838281610cc157610cc1611111565b0492505050610500565b808411610ce257610ce26003851502601118610dc0565b6000848688096000868103871696879004966002600389028118808a02820302808a02820302808a02820302808a02820302808a02820302808a02909103029181900381900460010186841190950394909402919094039290920491909117919091029150509392505050565b600080602060008451602086016000885af180610d72576040513d6000823e3d81fd5b50506000513d91508115610d8a578060011415610d97565b6001600160a01b0384163b155b1561078657604051635274afe760e01b81526001600160a01b038516600482015260240161053d565b634e487b71600052806020526024601cfd5b600060208083528351808285015260005b81811015610dff57858101830151858201604001528201610de3565b506000604082860101526040601f19601f8301168501019250505092915050565b600060208284031215610e3257600080fd5b5035919050565b80356001600160a01b0381168114610e5057600080fd5b919050565b60008060408385031215610e6857600080fd5b610e7183610e39565b946020939093013593505050565b600080600060608486031215610e9457600080fd5b610e9d84610e39565b9250610eab60208501610e39565b9150604084013590509250925092565b600060208284031215610ecd57600080fd5b61050082610e39565b60008060408385031215610ee957600080fd5b82359150610ef960208401610e39565b90509250929050565b600080600060608486031215610f1757600080fd5b83359250610f2760208501610e39565b9150610f3560408501610e39565b90509250925092565b60008060408385031215610f5157600080fd5b610f5a83610e39565b9150610ef960208401610e39565b600060208284031215610f7a57600080fd5b5051919050565b600181811c90821680610f9557607f821691505b602082108103610fb557634e487b7160e01b600052602260045260246000fd5b50919050565b634e487b7160e01b600052601160045260246000fd5b60ff81811683821601908111156104b6576104b6610fbb565b6001600160a01b039390931683526020830191909152604082015260600190565b808201808211156104b6576104b6610fbb565b600181815b8085111561105957816000190482111561103f5761103f610fbb565b8085161561104c57918102915b93841c9390800290611023565b509250929050565b600082611070575060016104b6565b8161107d575060006104b6565b8160018114611093576002811461109d576110b9565b60019150506104b6565b60ff8411156110ae576110ae610fbb565b50506001821b6104b6565b5060208310610133831016604e8410600b84101617156110dc575081810a6104b6565b6110e6838361101e565b80600019048211156110fa576110fa610fbb565b029392505050565b600061050060ff841683611061565b634e487b7160e01b600052601260045260246000fd5b634e487b7160e01b600052602160045260246000fd5b600060ff83168061115e57634e487b7160e01b600052601260045260246000fd5b8060ff8416069150509291505056fea26469706673582212208a2329ef9150499eb65b9e6ff81befa57feb2ee82839f4370abab80c1be01eb664736f6c63430008140033","linkReferences":{}},"methodIdentifiers":{"allowance(address,address)":"dd62ed3e","approve(address,uint256)":"095ea7b3","asset()":"38d52e0f","balanceOf(address)":"70a08231","convertToAssets(uint256)":"07a2d13a","convertToShares(uint256)":"c6e6f592","decimals()":"313ce567","deposit(uint256,address)":"6e553f65","maxDeposit(address)":"402d267d","maxMint(address)":"c63d75b6","maxRedeem(address)":"d905777e","maxWithdraw(address)":"ce96cb77","mint(uint256,address)":"94bf804d","name()":"06fdde03","previewDeposit(uint256)":"ef8b30f7","previewMint(uint256)":"b3d7f6b9","previewRedeem(uint256)":"4cdad506","previewWithdraw(uint256)":"0a28a477","redeem(uint256,address,address)":"ba087652","symbol()":"95d89b41","totalAssets()":"01e1d114","totalSupply()":"18160ddd","transfer(address,uint256)":"a9059cbb","transferFrom(address,address,uint256)":"23b872dd","withdraw(uint256,address,address)":"b460af94"},"id":38}